{"abi":[{"type":"constructor","inputs":[{"name":"_serverWallet","type":"address","internalType":"address"},{"name":"_baseURI","type":"string","internalType":"string"},{"name":"_royaltyReceiver","type":"address","internalType":"address"}],"stateMutability":"nonpayable"},{"type":"function","name":"AIRDROP_SIZE","inputs":[],"outputs":[{"name":"","type":"uint256","internalType":"uint256"}],"stateMutability":"view"},{"type":"function","name":"COLLECTION_ID","inputs":[],"outputs":[{"name":"","type":"string","internalType":"string"}],"stateMutability":"view"},{"type":"function","name":"MAX_PER_WALLET","inputs":[],"outputs":[{"name":"","type":"uint256","internalType":"uint256"}],"stateMutability":"view"},{"type":"function","name":"MAX_PUBLIC_SUPPLY","inputs":[],"outputs":[{"name":"","type":"uint256","internalType":"uint256"}],"stateMutability":"view"},{"type":"function","name":"MAX_SUPPLY","inputs":[],"outputs":[{"name":"","type":"uint256","internalType":"uint256"}],"stateMutability":"view"},{"type":"function","name":"airdropCompleted","inputs":[],"outputs":[{"name":"","type":"bool","internalType":"bool"}],"stateMutability":"view"},{"type":"function","name":"approve","inputs":[{"name":"to","type":"address","internalType":"address"},{"name":"tokenId","type":"uint256","internalType":"uint256"}],"outputs":[],"stateMutability":"nonpayable"},{"type":"function","name":"balanceOf","inputs":[{"name":"owner","type":"address","internalType":"address"}],"outputs":[{"name":"","type":"uint256","internalType":"uint256"}],"stateMutability":"view"},{"type":"function","name":"baseURI","inputs":[],"outputs":[{"name":"","type":"string","internalType":"string"}],"stateMutability":"view"},{"type":"function","name":"batchMint","inputs":[{"name":"recipients","type":"address[]","internalType":"address[]"},{"name":"paymentMethods","type":"string[]","internalType":"string[]"},{"name":"networks","type":"string[]","internalType":"string[]"}],"outputs":[],"stateMutability":"nonpayable"},{"type":"function","name":"canExecuteAirdrop","inputs":[],"outputs":[{"name":"","type":"bool","internalType":"bool"}],"stateMutability":"view"},{"type":"function","name":"contractURI","inputs":[],"outputs":[{"name":"","type":"string","internalType":"string"}],"stateMutability":"view"},{"type":"function","name":"executeAirdrop","inputs":[],"outputs":[],"stateMutability":"nonpayable"},{"type":"function","name":"getAirdropStatus","inputs":[],"outputs":[{"name":"ready","type":"bool","internalType":"bool"},{"name":"completed","type":"bool","internalType":"bool"}],"stateMutability":"view"},{"type":"function","name":"getApproved","inputs":[{"name":"tokenId","type":"uint256","internalType":"uint256"}],"outputs":[{"name":"","type":"address","internalType":"address"}],"stateMutability":"view"},{"type":"function","name":"getMintData","inputs":[{"name":"tokenId","type":"uint256","internalType":"uint256"}],"outputs":[{"name":"","type":"tuple","internalType":"struct X402ProtocolPioneers.MintData","components":[{"name":"timestamp","type":"uint256","internalType":"uint256"},{"name":"paymentMethod","type":"string","internalType":"string"},{"name":"network","type":"string","internalType":"string"}]}],"stateMutability":"view"},{"type":"function","name":"getNFTsOwned","inputs":[{"name":"owner","type":"address","internalType":"address"}],"outputs":[{"name":"","type":"tuple[]","internalType":"struct X402ProtocolPioneers.TokenWithMetadata[]","components":[{"name":"tokenId","type":"uint256","internalType":"uint256"},{"name":"tokenURI","type":"string","internalType":"string"},{"name":"rarityTier","type":"string","internalType":"string"},{"name":"mintData","type":"tuple","internalType":"struct X402ProtocolPioneers.MintData","components":[{"name":"timestamp","type":"uint256","internalType":"uint256"},{"name":"paymentMethod","type":"string","internalType":"string"},{"name":"network","type":"string","internalType":"string"}]}]}],"stateMutability":"view"},{"type":"function","name":"getRarityTier","inputs":[{"name":"tokenId","type":"uint256","internalType":"uint256"}],"outputs":[{"name":"","type":"string","internalType":"string"}],"stateMutability":"pure"},{"type":"function","name":"getRemainingMints","inputs":[{"name":"wallet","type":"address","internalType":"address"}],"outputs":[{"name":"","type":"uint256","internalType":"uint256"}],"stateMutability":"view"},{"type":"function","name":"getRoyaltyInfo","inputs":[],"outputs":[{"name":"receiver","type":"address","internalType":"address"},{"name":"basisPoints","type":"uint96","internalType":"uint96"}],"stateMutability":"view"},{"type":"function","name":"getTokenIdsOwned","inputs":[{"name":"owner","type":"address","internalType":"address"}],"outputs":[{"name":"","type":"uint256[]","internalType":"uint256[]"}],"stateMutability":"view"},{"type":"function","name":"isApprovedForAll","inputs":[{"name":"owner","type":"address","internalType":"address"},{"name":"operator","type":"address","internalType":"address"}],"outputs":[{"name":"","type":"bool","internalType":"bool"}],"stateMutability":"view"},{"type":"function","name":"isSoldOut","inputs":[],"outputs":[{"name":"","type":"bool","internalType":"bool"}],"stateMutability":"view"},{"type":"function","name":"mint","inputs":[{"name":"to","type":"address","internalType":"address"},{"name":"paymentMethod","type":"string","internalType":"string"},{"name":"network","type":"string","internalType":"string"}],"outputs":[],"stateMutability":"nonpayable"},{"type":"function","name":"mintData","inputs":[{"name":"","type":"uint256","internalType":"uint256"}],"outputs":[{"name":"timestamp","type":"uint256","internalType":"uint256"},{"name":"paymentMethod","type":"string","internalType":"string"},{"name":"network","type":"string","internalType":"string"}],"stateMutability":"view"},{"type":"function","name":"mintedPerWallet","inputs":[{"name":"","type":"address","internalType":"address"}],"outputs":[{"name":"","type":"uint256","internalType":"uint256"}],"stateMutability":"view"},{"type":"function","name":"name","inputs":[],"outputs":[{"name":"","type":"string","internalType":"string"}],"stateMutability":"view"},{"type":"function","name":"owner","inputs":[],"outputs":[{"name":"","type":"address","internalType":"address"}],"stateMutability":"view"},{"type":"function","name":"ownerOf","inputs":[{"name":"tokenId","type":"uint256","internalType":"uint256"}],"outputs":[{"name":"","type":"address","internalType":"address"}],"stateMutability":"view"},{"type":"function","name":"remainingSupply","inputs":[],"outputs":[{"name":"","type":"uint256","internalType":"uint256"}],"stateMutability":"view"},{"type":"function","name":"renounceOwnership","inputs":[],"outputs":[],"stateMutability":"nonpayable"},{"type":"function","name":"royaltyBasisPoints","inputs":[],"outputs":[{"name":"","type":"uint96","internalType":"uint96"}],"stateMutability":"view"},{"type":"function","name":"royaltyInfo","inputs":[{"name":"tokenId","type":"uint256","internalType":"uint256"},{"name":"salePrice","type":"uint256","internalType":"uint256"}],"outputs":[{"name":"receiver","type":"address","internalType":"address"},{"name":"amount","type":"uint256","internalType":"uint256"}],"stateMutability":"view"},{"type":"function","name":"royaltyReceiver","inputs":[],"outputs":[{"name":"","type":"address","internalType":"address"}],"stateMutability":"view"},{"type":"function","name":"safeTransferFrom","inputs":[{"name":"from","type":"address","internalType":"address"},{"name":"to","type":"address","internalType":"address"},{"name":"tokenId","type":"uint256","internalType":"uint256"}],"outputs":[],"stateMutability":"nonpayable"},{"type":"function","name":"safeTransferFrom","inputs":[{"name":"from","type":"address","internalType":"address"},{"name":"to","type":"address","internalType":"address"},{"name":"tokenId","type":"uint256","internalType":"uint256"},{"name":"data","type":"bytes","internalType":"bytes"}],"outputs":[],"stateMutability":"nonpayable"},{"type":"function","name":"serverWallet","inputs":[],"outputs":[{"name":"","type":"address","internalType":"address"}],"stateMutability":"view"},{"type":"function","name":"setApprovalForAll","inputs":[{"name":"operator","type":"address","internalType":"address"},{"name":"approved","type":"bool","internalType":"bool"}],"outputs":[],"stateMutability":"nonpayable"},{"type":"function","name":"supportsInterface","inputs":[{"name":"interfaceId","type":"bytes4","internalType":"bytes4"}],"outputs":[{"name":"","type":"bool","internalType":"bool"}],"stateMutability":"view"},{"type":"function","name":"symbol","inputs":[],"outputs":[{"name":"","type":"string","internalType":"string"}],"stateMutability":"view"},{"type":"function","name":"tokenURI","inputs":[{"name":"tokenId","type":"uint256","internalType":"uint256"}],"outputs":[{"name":"","type":"string","internalType":"string"}],"stateMutability":"view"},{"type":"function","name":"totalSupply","inputs":[],"outputs":[{"name":"","type":"uint256","internalType":"uint256"}],"stateMutability":"view"},{"type":"function","name":"transferFrom","inputs":[{"name":"from","type":"address","internalType":"address"},{"name":"to","type":"address","internalType":"address"},{"name":"tokenId","type":"uint256","internalType":"uint256"}],"outputs":[],"stateMutability":"nonpayable"},{"type":"function","name":"transferOwnership","inputs":[{"name":"newOwner","type":"address","internalType":"address"}],"outputs":[],"stateMutability":"nonpayable"},{"type":"function","name":"updateBaseURI","inputs":[{"name":"_newBaseURI","type":"string","internalType":"string"}],"outputs":[],"stateMutability":"nonpayable"},{"type":"function","name":"updateRoyaltyBasisPoints","inputs":[{"name":"_newBasisPoints","type":"uint96","internalType":"uint96"}],"outputs":[],"stateMutability":"nonpayable"},{"type":"function","name":"updateRoyaltyReceiver","inputs":[{"name":"_newReceiver","type":"address","internalType":"address"}],"outputs":[],"stateMutability":"nonpayable"},{"type":"function","name":"updateServerWallet","inputs":[{"name":"_newServerWallet","type":"address","internalType":"address"}],"outputs":[],"stateMutability":"nonpayable"},{"type":"function","name":"withdraw","inputs":[],"outputs":[],"stateMutability":"nonpayable"},{"type":"event","name":"AirdropExecuted","inputs":[{"name":"totalRecipients","type":"uint256","indexed":false,"internalType":"uint256"},{"name":"totalNFTs","type":"uint256","indexed":false,"internalType":"uint256"}],"anonymous":false},{"type":"event","name":"Approval","inputs":[{"name":"owner","type":"address","indexed":true,"internalType":"address"},{"name":"approved","type":"address","indexed":true,"internalType":"address"},{"name":"tokenId","type":"uint256","indexed":true,"internalType":"uint256"}],"anonymous":false},{"type":"event","name":"ApprovalForAll","inputs":[{"name":"owner","type":"address","indexed":true,"internalType":"address"},{"name":"operator","type":"address","indexed":true,"internalType":"address"},{"name":"approved","type":"bool","indexed":false,"internalType":"bool"}],"anonymous":false},{"type":"event","name":"BaseURIUpdated","inputs":[{"name":"oldURI","type":"string","indexed":true,"internalType":"string"},{"name":"newURI","type":"string","indexed":true,"internalType":"string"}],"anonymous":false},{"type":"event","name":"OwnershipTransferred","inputs":[{"name":"previousOwner","type":"address","indexed":true,"internalType":"address"},{"name":"newOwner","type":"address","indexed":true,"internalType":"address"}],"anonymous":false},{"type":"event","name":"RoyaltyBasisPointsUpdated","inputs":[{"name":"oldBasisPoints","type":"uint96","indexed":false,"internalType":"uint96"},{"name":"newBasisPoints","type":"uint96","indexed":false,"internalType":"uint96"}],"anonymous":false},{"type":"event","name":"RoyaltyReceiverUpdated","inputs":[{"name":"oldReceiver","type":"address","indexed":true,"internalType":"address"},{"name":"newReceiver","type":"address","indexed":true,"internalType":"address"}],"anonymous":false},{"type":"event","name":"ServerWalletUpdated","inputs":[{"name":"oldWallet","type":"address","indexed":true,"internalType":"address"},{"name":"newWallet","type":"address","indexed":true,"internalType":"address"}],"anonymous":false},{"type":"event","name":"TokenMinted","inputs":[{"name":"to","type":"address","indexed":true,"internalType":"address"},{"name":"tokenId","type":"uint256","indexed":true,"internalType":"uint256"},{"name":"paymentMethod","type":"string","indexed":false,"internalType":"string"}],"anonymous":false},{"type":"event","name":"Transfer","inputs":[{"name":"from","type":"address","indexed":true,"internalType":"address"},{"name":"to","type":"address","indexed":true,"internalType":"address"},{"name":"tokenId","type":"uint256","indexed":true,"internalType":"uint256"}],"anonymous":false},{"type":"error","name":"ERC2981InvalidDefaultRoyalty","inputs":[{"name":"numerator","type":"uint256","internalType":"uint256"},{"name":"denominator","type":"uint256","internalType":"uint256"}]},{"type":"error","name":"ERC2981InvalidDefaultRoyaltyReceiver","inputs":[{"name":"receiver","type":"address","internalType":"address"}]},{"type":"error","name":"ERC2981InvalidTokenRoyalty","inputs":[{"name":"tokenId","type":"uint256","internalType":"uint256"},{"name":"numerator","type":"uint256","internalType":"uint256"},{"name":"denominator","type":"uint256","internalType":"uint256"}]},{"type":"error","name":"ERC2981InvalidTokenRoyaltyReceiver","inputs":[{"name":"tokenId","type":"uint256","internalType":"uint256"},{"name":"receiver","type":"address","internalType":"address"}]},{"type":"error","name":"ERC721IncorrectOwner","inputs":[{"name":"sender","type":"address","internalType":"address"},{"name":"tokenId","type":"uint256","internalType":"uint256"},{"name":"owner","type":"address","internalType":"address"}]},{"type":"error","name":"ERC721InsufficientApproval","inputs":[{"name":"operator","type":"address","internalType":"address"},{"name":"tokenId","type":"uint256","internalType":"uint256"}]},{"type":"error","name":"ERC721InvalidApprover","inputs":[{"name":"approver","type":"address","internalType":"address"}]},{"type":"error","name":"ERC721InvalidOperator","inputs":[{"name":"operator","type":"address","internalType":"address"}]},{"type":"error","name":"ERC721InvalidOwner","inputs":[{"name":"owner","type":"address","internalType":"address"}]},{"type":"error","name":"ERC721InvalidReceiver","inputs":[{"name":"receiver","type":"address","internalType":"address"}]},{"type":"error","name":"ERC721InvalidSender","inputs":[{"name":"sender","type":"address","internalType":"address"}]},{"type":"error","name":"ERC721NonexistentToken","inputs":[{"name":"tokenId","type":"uint256","internalType":"uint256"}]},{"type":"error","name":"OwnableInvalidOwner","inputs":[{"name":"owner","type":"address","internalType":"address"}]},{"type":"error","name":"OwnableUnauthorizedAccount","inputs":[{"name":"account","type":"address","internalType":"address"}]}],"bytecode":{"object":"0x6080604052600d805460ff191690553480156200001b57600080fd5b5060405162004168380380620041688339810160408190526200003e916200033d565b336040518060400160405280601681526020017f783430322050726f746f636f6c2050696f6e6565727300000000000000000000815250604051806040016040528060048152602001632c1a181960e11b8152508160009081620000a39190620004c7565b506001620000b28282620004c7565b5050506001600160a01b038116620000e557604051631e4fbdf760e01b8152600060048201526024015b60405180910390fd5b620000f08162000211565b506001600160a01b038316620001555760405162461bcd60e51b8152602060048201526024808201527f5365727665722077616c6c65742063616e6e6f74206265207a65726f206164646044820152637265737360e01b6064820152608401620000dc565b6001600160a01b038116620001bd5760405162461bcd60e51b815260206004820152602760248201527f526f79616c74792072656365697665722063616e6e6f74206265207a65726f206044820152666164647265737360c81b6064820152608401620000dc565b600a80546001600160a01b0319166001600160a01b038516179055600b620001e68382620004c7565b50607d60a31b6001600160a01b03821617600c5562000208816103e862000263565b50505062000593565b600880546001600160a01b038381166001600160a01b0319831681179093556040519116919082907f8be0079c531659141344cd1fd0a4f28419497f9722a3daafe3b4186f6b6457e090600090a35050565b6127106001600160601b038216811015620002a457604051636f483d0960e01b81526001600160601b038316600482015260248101829052604401620000dc565b6001600160a01b038316620002d057604051635b6cc80560e11b815260006004820152602401620000dc565b50604080518082019091526001600160a01b039092168083526001600160601b039091166020909201829052600160a01b90910217600655565b80516001600160a01b03811681146200032257600080fd5b919050565b634e487b7160e01b600052604160045260246000fd5b6000806000606084860312156200035357600080fd5b6200035e846200030a565b602085810151919450906001600160401b03808211156200037e57600080fd5b818701915087601f8301126200039357600080fd5b815181811115620003a857620003a862000327565b604051601f8201601f19908116603f01168101908382118183101715620003d357620003d362000327565b816040528281528a86848701011115620003ec57600080fd5b600093505b82841015620004105784840186015181850187015292850192620003f1565b60008684830101528097505050505050506200042f604085016200030a565b90509250925092565b600181811c908216806200044d57607f821691505b6020821081036200046e57634e487b7160e01b600052602260045260246000fd5b50919050565b601f821115620004c257600081815260208120601f850160051c810160208610156200049d5750805b601f850160051c820191505b81811015620004be57828155600101620004a9565b5050505b505050565b81516001600160401b03811115620004e357620004e362000327565b620004fb81620004f4845462000438565b8462000474565b602080601f8311600181146200053357600084156200051a5750858301515b600019600386901b1c1916600185901b178555620004be565b600085815260208120601f198616915b82811015620005645788860151825594840194600190910190840162000543565b5085821015620005835787850151600019600388901b60f8161c191681555b5050505050600190811b01905550565b613bc580620005a36000396000f3fe608060405234801561001057600080fd5b50600436106102bb5760003560e01c80636ddb5c4111610182578063a293a996116100e9578063c9dd3d6d116100a2578063e8a3d4851161007c578063e8a3d4851461068d578063e985e9c514610695578063f2fde38b146106a8578063f7f8c5a5146106bb57600080fd5b8063c9dd3d6d1461064d578063da0239a614610672578063dab45bbd1461067a57600080fd5b8063a293a996146105d1578063a366f52d146105e4578063a86a28d1146105f0578063b88d4fde1461061f578063c4416dc614610632578063c87b56dd1461063a57600080fd5b806392902fa01161013b57806392902fa014610570578063931688cb1461057d57806395d89b411461059057806399071190146105985780639fbc8713146105ab578063a22cb465146105be57600080fd5b80636ddb5c411461050957806370a0823114610511578063715018a61461052457806373f164251461052c5780637fa803c31461054c5780638da5cb5b1461055f57600080fd5b80632a47f799116102265780633ccfd60b116101df5780633ccfd60b1461048157806342260b5d1461048957806342842e0e146104bb5780636352211e146104ce57806367d9c488146104e15780636c0360eb1461050157600080fd5b80632a47f799146103fd5780632a55205a146104065780632da5ea171461043857806332cb6b0c1461044557806334037fcf1461044e5780633a602b4d1461046157600080fd5b806318160ddd1161027857806318160ddd146103735780631a59f0f01461037c578063201c338b1461038f57806323b872dd146103c4578063275b1efb146103d757806329dc4d9b146103ea57600080fd5b806301ffc9a7146102c057806306fdde03146102e857806307fdad1f146102fd578063081812fc1461031d578063095ea7b3146103485780630f2cdd6c1461035d575b600080fd5b6102d36102ce36600461308e565b6106dd565b60405190151581526020015b60405180910390f35b6102f06106ee565b6040516102df91906130fb565b61031061030b36600461312a565b610780565b6040516102df9190613145565b61033061032b366004613189565b610852565b6040516001600160a01b0390911681526020016102df565b61035b6103563660046131a2565b61087b565b005b610365600581565b6040519081526020016102df565b61036560095481565b600a54610330906001600160a01b031681565b6102f060405180604001604052806016815260200175783430322d70726f746f636f6c2d70696f6e6565727360501b81525081565b61035b6103d23660046131cc565b61088a565b6102f06103e5366004613189565b61091a565b61035b6103f836600461312a565b610a22565b61036561016381565b610419610414366004613208565b610b11565b604080516001600160a01b0390931683526020830191909152016102df565b60095461019211156102d3565b61036561019281565b61035b61045c36600461322a565b610b98565b61036561046f36600461312a565b600e6020526000908152604090205481565b61035b610c7c565b600c546104a390600160a01b90046001600160601b031681565b6040516001600160601b0390911681526020016102df565b61035b6104c93660046131cc565b610d6f565b6103306104dc366004613189565b610d8f565b6104f46104ef36600461312a565b610d9a565b6040516102df919061328b565b6102f0610ff4565b61035b611003565b61036561051f36600461312a565b611037565b61035b6110c2565b61053f61053a366004613189565b6110d4565b6040516102df9190613337565b61036561055a36600461312a565b6112a0565b6008546001600160a01b0316610330565b600d546102d39060ff1681565b61035b61058b36600461338c565b6112ec565b6102f06113f0565b61035b6105a63660046133ce565b6113ff565b600c54610330906001600160a01b031681565b61035b6105cc36600461344f565b611767565b61035b6105df36600461312a565b611772565b600d5460ff16156102d3565b600c54604080516001600160a01b0383168152600160a01b9092046001600160601b03166020830152016102df565b61035b61062d3660046134a1565b61182e565b610365602f81565b6102f0610648366004613189565b611846565b61065b600d5460ff16801591565b6040805192151583529015156020830152016102df565b6103656118ff565b61035b6106883660046135c2565b611916565b6102f0611b73565b6102d36106a336600461365c565b611b9b565b61035b6106b636600461312a565b611bc9565b6106ce6106c9366004613189565b611c07565b6040516102df9392919061368f565b60006106e882611d3a565b92915050565b6060600080546106fd906136c4565b80601f0160208091040260200160405190810160405280929190818152602001828054610729906136c4565b80156107765780601f1061074b57610100808354040283529160200191610776565b820191906000526020600020905b81548152906001019060200180831161075957829003601f168201915b5050505050905090565b6001600160a01b0381166000908152600f60205260408120606091906107a590611d5f565b905060008167ffffffffffffffff8111156107c2576107c261348b565b6040519080825280602002602001820160405280156107eb578160200160208202803683370190505b50905060005b8281101561084a576001600160a01b0385166000908152600f6020526040902061081b9082611d69565b82828151811061082d5761082d6136fe565b6020908102919091010152806108428161372a565b9150506107f1565b509392505050565b600061085d82611d7c565b506000828152600460205260409020546001600160a01b03166106e8565b610886828233611db5565b5050565b6001600160a01b0382166108b957604051633250574960e11b8152600060048201526024015b60405180910390fd5b60006108c6838333611dc2565b9050836001600160a01b0316816001600160a01b031614610914576040516364283d7b60e01b81526001600160a01b03808616600483015260248201849052821660448201526064016108b0565b50505050565b606060008211801561092e57506101928211155b6109725760405162461bcd60e51b8152602060048201526015602482015274546f6b656e204944206f7574206f662072616e676560581b60448201526064016108b0565b600a821161099d57505060408051808201909152600781526647656e6573697360c81b602082015290565b606482116109c85750506040805180820190915260078152662834b7b732b2b960c91b602082015290565b60e182116109f957505060408051808201909152600d81526c22b0b9363c9020b237b83a32b960991b602082015290565b505060408051808201909152600d81526c283937ba37b1b7b6102ab9b2b960991b602082015290565b610a2a611e4b565b6001600160a01b038116610a905760405162461bcd60e51b815260206004820152602760248201527f526f79616c74792072656365697665722063616e6e6f74206265207a65726f206044820152666164647265737360c81b60648201526084016108b0565b600c80546001600160a01b038381166001600160a01b0319831617928390551690610acd9083906001600160601b03600160a01b90910416611e78565b816001600160a01b0316816001600160a01b03167f67b490a6eb879b67b91826b576ca0a1ba79f82484d43c4e330e3948dac8182d760405160405180910390a35050565b600082815260076020526040812080548291906001600160a01b03811690600160a01b90046001600160601b031681610b655750506006546001600160a01b03811690600160a01b90046001600160601b03165b6000612710610b7d6001600160601b03841689613743565b610b87919061375a565b9295509193505050505b9250929050565b610ba0611e4b565b6103e8816001600160601b03161115610bfb5760405162461bcd60e51b815260206004820152601960248201527f526f79616c74792063616e6e6f7420657863656564203130250000000000000060448201526064016108b0565b600c80546001600160a01b03808216600160a01b6001600160601b038681168202838117909655930490921692610c359291161783611e78565b604080516001600160601b038084168252841660208201527efdd755cf5c697d3e628bebb0c4ba3ef5eb9432ade558b4dc13b36db1d0c76b91015b60405180910390a15050565b610c84611e4b565b4780610cc75760405162461bcd60e51b81526020600482015260126024820152714e6f2045544820746f20776974686472617760701b60448201526064016108b0565b6000610cdb6008546001600160a01b031690565b6001600160a01b03168260405160006040518083038185875af1925050503d8060008114610d25576040519150601f19603f3d011682016040523d82523d6000602084013e610d2a565b606091505b50509050806108865760405162461bcd60e51b815260206004820152601160248201527015da5d1a191c985dd85b0819985a5b1959607a1b60448201526064016108b0565b610d8a8383836040518060200160405280600081525061182e565b505050565b60006106e882611d7c565b6001600160a01b0381166000908152600f6020526040812060609190610dbf90611d5f565b905060008167ffffffffffffffff811115610ddc57610ddc61348b565b604051908082528060200260200182016040528015610e1557816020015b610e0261302f565b815260200190600190039081610dfa5790505b50905060005b8281101561084a576001600160a01b0385166000908152600f60205260408120610e459083611d69565b90506040518060800160405280828152602001610e6183611846565b8152602001610e6f8361091a565b81526020016010600084815260200190815260200160002060405180606001604052908160008201548152602001600182018054610eac906136c4565b80601f0160208091040260200160405190810160405280929190818152602001828054610ed8906136c4565b8015610f255780601f10610efa57610100808354040283529160200191610f25565b820191906000526020600020905b815481529060010190602001808311610f0857829003601f168201915b50505050508152602001600282018054610f3e906136c4565b80601f0160208091040260200160405190810160405280929190818152602001828054610f6a906136c4565b8015610fb75780601f10610f8c57610100808354040283529160200191610fb7565b820191906000526020600020905b815481529060010190602001808311610f9a57829003601f168201915b505050505081525050815250838381518110610fd557610fd56136fe565b6020026020010181905250508080610fec9061372a565b915050610e1b565b6060600b80546106fd906136c4565b600a546001600160a01b0316331461102d5760405162461bcd60e51b81526004016108b09061377c565b611035611f1b565b565b60006001600160a01b0382166110a15760405162461bcd60e51b815260206004820152602960248201527f4552433732313a2061646472657373207a65726f206973206e6f7420612076616044820152683634b21037bbb732b960b91b60648201526084016108b0565b6001600160a01b0382166000908152600f602052604090206106e890611d5f565b6110ca611e4b565b61103560006127a6565b6110f860405180606001604052806000815260200160608152602001606081525090565b60008211801561110a57506009548211155b61114d5760405162461bcd60e51b8152602060048201526014602482015273151bdad95b88191bd95cc81b9bdd08195e1a5cdd60621b60448201526064016108b0565b6010600083815260200190815260200160002060405180606001604052908160008201548152602001600182018054611185906136c4565b80601f01602080910402602001604051908101604052809291908181526020018280546111b1906136c4565b80156111fe5780601f106111d3576101008083540402835291602001916111fe565b820191906000526020600020905b8154815290600101906020018083116111e157829003601f168201915b50505050508152602001600282018054611217906136c4565b80601f0160208091040260200160405190810160405280929190818152602001828054611243906136c4565b80156112905780601f1061126557610100808354040283529160200191611290565b820191906000526020600020905b81548152906001019060200180831161127357829003601f168201915b5050505050815250509050919050565b6001600160a01b0381166000908152600e60205260408120546005116112c857506000919050565b6001600160a01b0382166000908152600e60205260409020546106e89060056137b3565b6112f4611e4b565b6000600b8054611303906136c4565b80601f016020809104026020016040519081016040528092919081815260200182805461132f906136c4565b801561137c5780601f106113515761010080835404028352916020019161137c565b820191906000526020600020905b81548152906001019060200180831161135f57829003601f168201915b505050505090508282600b918261139492919061380c565b5082826040516113a59291906138cc565b6040518091039020816040516113bb91906138dc565b604051908190038120907f309b29ded109b9e28fb9885757b3e0096eb75c51d23aa4635d68bcd569f6adc190600090a3505050565b6060600180546106fd906136c4565b600a546001600160a01b031633146114295760405162461bcd60e51b81526004016108b09061377c565b6001600160a01b0385166000908152600e602052604090205485906001906005906114559083906138f8565b111561149a5760405162461bcd60e51b8152602060048201526014602482015273115e18d959591cc81dd85b1b195d081b1a5b5a5d60621b60448201526064016108b0565b6001600160a01b0387166114f05760405162461bcd60e51b815260206004820152601b60248201527f43616e6e6f74206d696e7420746f207a65726f2061646472657373000000000060448201526064016108b0565b6101636009541061155a5760405162461bcd60e51b815260206004820152602e60248201527f5075626c6963206d696e74696e6720636c6f736564202d2061697264726f702060448201526d1cdb1bdd1cc81c995cd95c9d995960921b60648201526084016108b0565b604051633c1a181960e11b60208201526024016040516020818303038152906040528051906020012086866040516020016115969291906138cc565b60405160208183030381529060405280519060200120146115f95760405162461bcd60e51b815260206004820152601d60248201527f5061796d656e74206d6574686f64206d7573742062652027783430322700000060448201526064016108b0565b6000600954600161160a91906138f8565b60098054919250600061161c8361372a565b9190505550604051806060016040528042815260200188888080601f016020809104026020016040519081016040528093929190818152602001838380828437600092019190915250505090825250604080516020601f8901819004810282018101909252878152918101919088908890819084018382808284376000920182905250939094525050838152601060209081526040909120835181559083015190915060018201906116ce908261390b565b50604082015160028201906116e3908261390b565b5050506001600160a01b0388166000908152600e6020526040812080549161170a8361372a565b919050555061171988826127f8565b80886001600160a01b03167fdf92894dc4675a7333caa5903b69cf5d8e8ec0d3f361c88207b6688e525703bb89896040516117559291906139cb565b60405180910390a35050505050505050565b61088633838361285d565b61177a611e4b565b6001600160a01b0381166117dc5760405162461bcd60e51b8152602060048201526024808201527f5365727665722077616c6c65742063616e6e6f74206265207a65726f206164646044820152637265737360e01b60648201526084016108b0565b600a80546001600160a01b038381166001600160a01b0319831681179093556040519116919082907f22b059a29562c70d00e1b93302ee0ceea2e4c1162e027ffa0da8f3e6455ea4fb90600090a35050565b61183984848461088a565b61091433858585856128fc565b606060008211801561185a57506009548211155b61189d5760405162461bcd60e51b8152602060048201526014602482015273151bdad95b88191bd95cc81b9bdd08195e1a5cdd60621b60448201526064016108b0565b600b6118a883612a27565b60405180604001604052806016815260200175783430322d70726f746f636f6c2d70696f6e6565727360501b8152506040516020016118e993929190613a6d565b6040516020818303038152906040529050919050565b600060095461019261191191906137b3565b905090565b600a546001600160a01b031633146119405760405162461bcd60e51b81526004016108b09061377c565b848314801561194e57508281145b61199a5760405162461bcd60e51b815260206004820152601860248201527f4172726179206c656e67746873206d757374206d61746368000000000000000060448201526064016108b0565b600954610163906119ac9087906138f8565b1115611a165760405162461bcd60e51b815260206004820152603360248201527f576f756c6420657863656564207075626c696320737570706c79202d20616972604482015272191c9bdc081cdb1bdd1cc81c995cd95c9d9959606a1b60648201526084016108b0565b60005b85811015611ada576005600e6000898985818110611a3957611a396136fe565b9050602002016020810190611a4e919061312a565b6001600160a01b03166001600160a01b031681526020019081526020016000205410611ac85760405162461bcd60e51b815260206004820152602360248201527f526563697069656e7420776f756c64206578636565642077616c6c6574206c696044820152621b5a5d60ea1b60648201526084016108b0565b80611ad28161372a565b915050611a19565b5060005b85811015611b6a57611b58878783818110611afb57611afb6136fe565b9050602002016020810190611b10919061312a565b868684818110611b2257611b226136fe565b9050602002810190611b349190613abe565b868686818110611b4657611b466136fe565b90506020028101906105a69190613abe565b80611b628161372a565b915050611ade565b50505050505050565b6060600b604051602001611b879190613b05565b604051602081830303815290604052905090565b6001600160a01b03918216600090815260056020908152604080832093909416825291909152205460ff1690565b611bd1611e4b565b6001600160a01b038116611bfb57604051631e4fbdf760e01b8152600060048201526024016108b0565b611c04816127a6565b50565b60106020526000908152604090208054600182018054919291611c29906136c4565b80601f0160208091040260200160405190810160405280929190818152602001828054611c55906136c4565b8015611ca25780601f10611c7757610100808354040283529160200191611ca2565b820191906000526020600020905b815481529060010190602001808311611c8557829003601f168201915b505050505090806002018054611cb7906136c4565b80601f0160208091040260200160405190810160405280929190818152602001828054611ce3906136c4565b8015611d305780601f10611d0557610100808354040283529160200191611d30565b820191906000526020600020905b815481529060010190602001808311611d1357829003601f168201915b5050505050905083565b60006001600160e01b0319821663152a902d60e11b14806106e857506106e882612aba565b60006106e8825490565b6000611d758383612b0a565b9392505050565b6000818152600260205260408120546001600160a01b0316806106e857604051637e27328960e01b8152600481018490526024016108b0565b610d8a8383836001612b34565b6000828152600260205260408120546001600160a01b03168015611e04576001600160a01b0381166000908152600f60205260409020611e029085612c3a565b505b6001600160a01b03851615611e37576001600160a01b0385166000908152600f60205260409020611e359085612c46565b505b611e42858585612c52565b95945050505050565b6008546001600160a01b031633146110355760405163118cdaa760e01b81523360048201526024016108b0565b6127106001600160601b038216811015611eb757604051636f483d0960e01b81526001600160601b0383166004820152602481018290526044016108b0565b6001600160a01b038316611ee157604051635b6cc80560e11b8152600060048201526024016108b0565b50604080518082019091526001600160a01b039092168083526001600160601b039091166020909201829052600160a01b90910217600655565b600d5460ff1615611f6e5760405162461bcd60e51b815260206004820152601960248201527f41697264726f7020616c726561647920636f6d706c657465640000000000000060448201526064016108b0565b610192600954602f611f8091906138f8565b1115611fce5760405162461bcd60e51b815260206004820152601f60248201527f41697264726f7020776f756c6420657863656564206d617820737570706c790060448201526064016108b0565b6001600d60006101000a81548160ff0219169083151502179055506000604051806103600160405280736b4d1927e81338ea8330b36ea2096432662bfb706001600160a01b03166001600160a01b031681526020017368d79808a9757f5a29393a67bfc17dff1396f8a96001600160a01b03166001600160a01b0316815260200173416aa2d7adbb3f599f42768636a761c9baf0c8e46001600160a01b03166001600160a01b0316815260200173ad9cc1a85e74bd1300c57082ba86ed21e6aaa5e86001600160a01b03166001600160a01b0316815260200173b3cce18dda084502ba37a454563ff835559f89a86001600160a01b03166001600160a01b03168152602001723bd719c43d683335513e1435ff976fe73ab65e6001600160a01b03166001600160a01b031681526020017318717190340a530a4b74bfa823cdc70fdc7d813b6001600160a01b03166001600160a01b03168152602001735660e1a26b68f50b4dabb92d4271aa5035b476ac6001600160a01b03166001600160a01b03168152602001735bd75193b70050a40eddfb13d1aa1851236d10126001600160a01b03166001600160a01b0316815260200173968974717b8209006a661657c1f2852ffc6870bd6001600160a01b03166001600160a01b0316815260200173bc364a87a5257957679badece3e3610faaa915116001600160a01b03166001600160a01b0316815260200173e68bc10cb855b108dedc1cfe6e77b089d46cd45a6001600160a01b03166001600160a01b0316815260200173120f6ebde2b8582c569903ac76a8f150bbd0a6bd6001600160a01b03166001600160a01b03168152602001731db3fed7aaa3418aaaca6d2094717dc214f1b0c26001600160a01b03166001600160a01b03168152602001733d5ae9e34ab7d7b06156cf831f73a9955619f28f6001600160a01b03166001600160a01b0316815260200173461acd846b4cc249b96242f1ab7c72a39d94747c6001600160a01b03166001600160a01b0316815260200173703edc0c7e64d30f52073650bf7860b26d9949cf6001600160a01b03166001600160a01b031681526020017378f52b01d061b8c71f8acbc8fdc7d111c9d6d9f96001600160a01b03166001600160a01b03168152602001737f854378ec0d23346f16f17a161383cdd00438bd6001600160a01b03166001600160a01b03168152602001738b6b94bab1097e7c2c06d16cf48a9e8959db92f86001600160a01b03166001600160a01b03168152602001738e225dae9b895ea75fee06c64e1899cba23355ea6001600160a01b03166001600160a01b0316815260200173943590a42c27d08e3744202c4ae5ed55c2de240d6001600160a01b03166001600160a01b0316815260200173a487b2e2b9028d3c6b9783fe517519f108c133ce6001600160a01b03166001600160a01b0316815260200173b458d89b71a1ad74ff5d509b96e666c1b0130c286001600160a01b03166001600160a01b0316815260200173c54a1bdb11d728373c79db86f042582ad9f044526001600160a01b03166001600160a01b0316815260200173c634c79097ae12c3c6484adad9cf4d91aa7b6e2a6001600160a01b03166001600160a01b0316815260200173f1efaf60f6a3d28b78d2614e08200d379df4d5916001600160a01b03166001600160a01b031681525090506000604051806103600160405280600560ff168152602001600460ff168152602001600360ff168152602001600360ff168152602001600360ff168152602001600260ff168152602001600260ff168152602001600260ff168152602001600260ff168152602001600260ff168152602001600260ff168152602001600260ff168152602001600160ff168152602001600160ff168152602001600160ff168152602001600160ff168152602001600160ff168152602001600160ff168152602001600160ff168152602001600160ff168152602001600160ff168152602001600160ff168152602001600160ff168152602001600160ff168152602001600160ff168152602001600160ff168152602001600160ff16815250905060005b601b81101561276e5760008382601b81106125d6576125d66136fe565b6020020151905060008383601b81106125f1576125f16136fe565b602002015160ff16905060005b81811015612758576000600954600161261791906138f8565b6009805491925060006126298361372a565b909155505060408051606081018252428152815180830183526004808252633c1a181960e11b60208381019190915280840192835284518086018652918252636261736560e01b8282015283850191909152600085815260109091529290922081518155915190919060018201906126a1908261390b565b50604082015160028201906126b6908261390b565b5050506001600160a01b0384166000908152600e602052604081208054916126dd8361372a565b91905055506126ec84826127f8565b80846001600160a01b03167fdf92894dc4675a7333caa5903b69cf5d8e8ec0d3f361c88207b6688e525703bb60405161273d906020808252600490820152633c1a181960e11b604082015260600190565b60405180910390a350806127508161372a565b9150506125fe565b50505080806127669061372a565b9150506125b9565b5060408051601b8152602f60208201527f0fa3c377438bb545a4c9ecaa3e574d96bb1b2c6416976df85919d2b83a57bd9f9101610c70565b600880546001600160a01b038381166001600160a01b0319831681179093556040519116919082907f8be0079c531659141344cd1fd0a4f28419497f9722a3daafe3b4186f6b6457e090600090a35050565b6001600160a01b03821661282257604051633250574960e11b8152600060048201526024016108b0565b600061283083836000611dc2565b90506001600160a01b03811615610d8a576040516339e3563760e11b8152600060048201526024016108b0565b6001600160a01b03821661288f57604051630b61174360e31b81526001600160a01b03831660048201526024016108b0565b6001600160a01b03838116600081815260056020908152604080832094871680845294825291829020805460ff191686151590811790915591519182527f17307eab39ab6107e8899845ad3d59bd9653f200f220920489ca2b5937696c31910160405180910390a3505050565b6001600160a01b0383163b15612a2057604051630a85bd0160e11b81526001600160a01b0384169063150b7a029061293e908890889087908790600401613b29565b6020604051808303816000875af1925050508015612979575060408051601f3d908101601f1916820190925261297691810190613b5c565b60015b6129e2573d8080156129a7576040519150601f19603f3d011682016040523d82523d6000602084013e6129ac565b606091505b5080516000036129da57604051633250574960e11b81526001600160a01b03851660048201526024016108b0565b805160208201fd5b6001600160e01b03198116630a85bd0160e11b14612a1e57604051633250574960e11b81526001600160a01b03851660048201526024016108b0565b505b5050505050565b60606000612a3483612d4b565b600101905060008167ffffffffffffffff811115612a5457612a5461348b565b6040519080825280601f01601f191660200182016040528015612a7e576020820181803683370190505b5090508181016020015b600019016f181899199a1a9b1b9c1cb0b131b232b360811b600a86061a8153600a8504945084612a8857509392505050565b60006001600160e01b031982166380ac58cd60e01b1480612aeb57506001600160e01b03198216635b5e139f60e01b145b806106e857506301ffc9a760e01b6001600160e01b03198316146106e8565b6000826000018281548110612b2157612b216136fe565b9060005260206000200154905092915050565b8080612b4857506001600160a01b03821615155b15612c0a576000612b5884611d7c565b90506001600160a01b03831615801590612b845750826001600160a01b0316816001600160a01b031614155b8015612b975750612b958184611b9b565b155b15612bc05760405163a9fbf51f60e01b81526001600160a01b03841660048201526024016108b0565b8115612c085783856001600160a01b0316826001600160a01b03167f8c5be1e5ebec7d5bd14f71427d1e84f3dd0314c0f7b2291e5b200ac8c7c3b92560405160405180910390a45b505b5050600090815260046020526040902080546001600160a01b0319166001600160a01b0392909216919091179055565b6000611d758383612e23565b6000611d758383612f16565b6000828152600260205260408120546001600160a01b0390811690831615612c7f57612c7f818486612f65565b6001600160a01b03811615612cbd57612c9c600085600080612b34565b6001600160a01b038116600090815260036020526040902080546000190190555b6001600160a01b03851615612cec576001600160a01b0385166000908152600360205260409020805460010190555b60008481526002602052604080822080546001600160a01b0319166001600160a01b0389811691821790925591518793918516917fddf252ad1be2c89b69c2b068fc378daa952ba7f163c4a11628f55a4df523b3ef91a4949350505050565b60008072184f03e93ff9f4daa797ed6e38ed64bf6a1f0160401b8310612d8a5772184f03e93ff9f4daa797ed6e38ed64bf6a1f0160401b830492506040015b6d04ee2d6d415b85acef81000000008310612db6576d04ee2d6d415b85acef8100000000830492506020015b662386f26fc100008310612dd457662386f26fc10000830492506010015b6305f5e1008310612dec576305f5e100830492506008015b6127108310612e0057612710830492506004015b60648310612e12576064830492506002015b600a83106106e85760010192915050565b60008181526001830160205260408120548015612f0c576000612e476001836137b3565b8554909150600090612e5b906001906137b3565b9050808214612ec0576000866000018281548110612e7b57612e7b6136fe565b9060005260206000200154905080876000018481548110612e9e57612e9e6136fe565b6000918252602080832090910192909255918252600188019052604090208390555b8554869080612ed157612ed1613b79565b6001900381819060005260206000200160009055905585600101600086815260200190815260200160002060009055600193505050506106e8565b60009150506106e8565b6000818152600183016020526040812054612f5d575081546001818101845560008481526020808220909301849055845484825282860190935260409020919091556106e8565b5060006106e8565b612f70838383612fc9565b610d8a576001600160a01b038316612f9e57604051637e27328960e01b8152600481018290526024016108b0565b60405163177e802f60e01b81526001600160a01b0383166004820152602481018290526044016108b0565b60006001600160a01b038316158015906130275750826001600160a01b0316846001600160a01b0316148061300357506130038484611b9b565b8061302757506000828152600460205260409020546001600160a01b038481169116145b949350505050565b604051806080016040528060008152602001606081526020016060815260200161307360405180606001604052806000815260200160608152602001606081525090565b905290565b6001600160e01b031981168114611c0457600080fd5b6000602082840312156130a057600080fd5b8135611d7581613078565b60005b838110156130c65781810151838201526020016130ae565b50506000910152565b600081518084526130e78160208601602086016130ab565b601f01601f19169290920160200192915050565b602081526000611d7560208301846130cf565b80356001600160a01b038116811461312557600080fd5b919050565b60006020828403121561313c57600080fd5b611d758261310e565b6020808252825182820181905260009190848201906040850190845b8181101561317d57835183529284019291840191600101613161565b50909695505050505050565b60006020828403121561319b57600080fd5b5035919050565b600080604083850312156131b557600080fd5b6131be8361310e565b946020939093013593505050565b6000806000606084860312156131e157600080fd5b6131ea8461310e565b92506131f86020850161310e565b9150604084013590509250925092565b6000806040838503121561321b57600080fd5b50508035926020909101359150565b60006020828403121561323c57600080fd5b81356001600160601b0381168114611d7557600080fd5b80518252600060208201516060602085015261327260608501826130cf565b905060408301518482036040860152611e4282826130cf565b60006020808301818452808551808352604092508286019150828160051b87010184880160005b8381101561332957603f19898403018552815160808151855288820151818a8701526132e0828701826130cf565b91505087820151858203898701526132f882826130cf565b915050606080830151925085820381870152506133158183613253565b9689019694505050908601906001016132b2565b509098975050505050505050565b602081526000611d756020830184613253565b60008083601f84011261335c57600080fd5b50813567ffffffffffffffff81111561337457600080fd5b602083019150836020828501011115610b9157600080fd5b6000806020838503121561339f57600080fd5b823567ffffffffffffffff8111156133b657600080fd5b6133c28582860161334a565b90969095509350505050565b6000806000806000606086880312156133e657600080fd5b6133ef8661310e565b9450602086013567ffffffffffffffff8082111561340c57600080fd5b61341889838a0161334a565b9096509450604088013591508082111561343157600080fd5b5061343e8882890161334a565b969995985093965092949392505050565b6000806040838503121561346257600080fd5b61346b8361310e565b91506020830135801515811461348057600080fd5b809150509250929050565b634e487b7160e01b600052604160045260246000fd5b600080600080608085870312156134b757600080fd5b6134c08561310e565b93506134ce6020860161310e565b925060408501359150606085013567ffffffffffffffff808211156134f257600080fd5b818701915087601f83011261350657600080fd5b8135818111156135185761351861348b565b604051601f8201601f19908116603f011681019083821181831017156135405761354061348b565b816040528281528a602084870101111561355957600080fd5b82602086016020830137600060208483010152809550505050505092959194509250565b60008083601f84011261358f57600080fd5b50813567ffffffffffffffff8111156135a757600080fd5b6020830191508360208260051b8501011115610b9157600080fd5b600080600080600080606087890312156135db57600080fd5b863567ffffffffffffffff808211156135f357600080fd5b6135ff8a838b0161357d565b9098509650602089013591508082111561361857600080fd5b6136248a838b0161357d565b9096509450604089013591508082111561363d57600080fd5b5061364a89828a0161357d565b979a9699509497509295939492505050565b6000806040838503121561366f57600080fd5b6136788361310e565b91506136866020840161310e565b90509250929050565b8381526060602082015260006136a860608301856130cf565b82810360408401526136ba81856130cf565b9695505050505050565b600181811c908216806136d857607f821691505b6020821081036136f857634e487b7160e01b600052602260045260246000fd5b50919050565b634e487b7160e01b600052603260045260246000fd5b634e487b7160e01b600052601160045260246000fd5b60006001820161373c5761373c613714565b5060010190565b80820281158282048414176106e8576106e8613714565b60008261377757634e487b7160e01b600052601260045260246000fd5b500490565b6020808252601b908201527f4f6e6c79207365727665722077616c6c65742063616e206d696e740000000000604082015260600190565b818103818111156106e8576106e8613714565b601f821115610d8a57600081815260208120601f850160051c810160208610156137ed5750805b601f850160051c820191505b81811015612a1e578281556001016137f9565b67ffffffffffffffff8311156138245761382461348b565b6138388361383283546136c4565b836137c6565b6000601f84116001811461386c57600085156138545750838201355b600019600387901b1c1916600186901b178355612a20565b600083815260209020601f19861690835b8281101561389d578685013582556020948501946001909201910161387d565b50868210156138ba5760001960f88860031b161c19848701351681555b505060018560011b0183555050505050565b8183823760009101908152919050565b600082516138ee8184602087016130ab565b9190910192915050565b808201808211156106e8576106e8613714565b815167ffffffffffffffff8111156139255761392561348b565b6139398161393384546136c4565b846137c6565b602080601f83116001811461396e57600084156139565750858301515b600019600386901b1c1916600185901b178555612a1e565b600085815260208120601f198616915b8281101561399d5788860151825594840194600190910190840161397e565b50858210156139bb5787850151600019600388901b60f8161c191681555b5050505050600190811b01905550565b60208152816020820152818360408301376000818301604090810191909152601f909201601f19160101919050565b60008154613a07816136c4565b60018281168015613a1f5760018114613a3457613a63565b60ff1984168752821515830287019450613a63565b8560005260208060002060005b85811015613a5a5781548a820152908401908201613a41565b50505082870194505b5050505092915050565b6000613a7982866139fa565b8451613a898183602089016130ab565b6b3f636f6c6c656374696f6e3d60a01b91019081528351613ab181600c8401602088016130ab565b01600c0195945050505050565b6000808335601e19843603018112613ad557600080fd5b83018035915067ffffffffffffffff821115613af057600080fd5b602001915036819003821315610b9157600080fd5b6000613b1182846139fa565b6718dbdb9d1c9858dd60c21b81526008019392505050565b6001600160a01b03858116825284166020820152604081018390526080606082018190526000906136ba908301846130cf565b600060208284031215613b6e57600080fd5b8151611d7581613078565b634e487b7160e01b600052603160045260246000fdfea2646970667358221220fbd8b93f7c869f416f787288480536beff99dc899fb6f674af5b3ba1fe7b665564736f6c63430008140033","linkReferences":{}},"methodIdentifiers":{"AIRDROP_SIZE()":"c4416dc6","COLLECTION_ID()":"201c338b","MAX_PER_WALLET()":"0f2cdd6c","MAX_PUBLIC_SUPPLY()":"2a47f799","MAX_SUPPLY()":"32cb6b0c","airdropCompleted()":"92902fa0","approve(address,uint256)":"095ea7b3","balanceOf(address)":"70a08231","baseURI()":"6c0360eb","batchMint(address[],string[],string[])":"dab45bbd","canExecuteAirdrop()":"a366f52d","contractURI()":"e8a3d485","executeAirdrop()":"6ddb5c41","getAirdropStatus()":"c9dd3d6d","getApproved(uint256)":"081812fc","getMintData(uint256)":"73f16425","getNFTsOwned(address)":"67d9c488","getRarityTier(uint256)":"275b1efb","getRemainingMints(address)":"7fa803c3","getRoyaltyInfo()":"a86a28d1","getTokenIdsOwned(address)":"07fdad1f","isApprovedForAll(address,address)":"e985e9c5","isSoldOut()":"2da5ea17","mint(address,string,string)":"99071190","mintData(uint256)":"f7f8c5a5","mintedPerWallet(address)":"3a602b4d","name()":"06fdde03","owner()":"8da5cb5b","ownerOf(uint256)":"6352211e","remainingSupply()":"da0239a6","renounceOwnership()":"715018a6","royaltyBasisPoints()":"42260b5d","royaltyInfo(uint256,uint256)":"2a55205a","royaltyReceiver()":"9fbc8713","safeTransferFrom(address,address,uint256)":"42842e0e","safeTransferFrom(address,address,uint256,bytes)":"b88d4fde","serverWallet()":"1a59f0f0","setApprovalForAll(address,bool)":"a22cb465","supportsInterface(bytes4)":"01ffc9a7","symbol()":"95d89b41","tokenURI(uint256)":"c87b56dd","totalSupply()":"18160ddd","transferFrom(address,address,uint256)":"23b872dd","transferOwnership(address)":"f2fde38b","updateBaseURI(string)":"931688cb","updateRoyaltyBasisPoints(uint96)":"34037fcf","updateRoyaltyReceiver(address)":"29dc4d9b","updateServerWallet(address)":"a293a996","withdraw()":"3ccfd60b"},"id":0}